S012000053686F77726F6F6D494F2E737265631C
S11300000C9401020C9429020C9429020C942902E8
S11300100C9429020C9429020C9429020C942902B0
S11300200C9429020C9429020C9429020C942902A0
S11300300C9429020C9429020C9429020C94BA14ED
S11300400C9429020C9429020C9429020C94290280
S11300500C9429020C948F100C9429020C942902FC
S11300600C9429020C9429020C9429020C94290260
S11300700C9429020C9429020C9429020C94290250
S11300800C9429020C9429020C9429020C94290240
S11300900C9429020C9429020C9429020C94290230
S11300A00C9429020C9429020C9429020C94290220
S11300B00C9429020C9429020C9429020C94290210
S11300C00C9429020C9429020C9429020C942910F2
S11300D00C9402100C9429020C9429020C94290209
S11300E00C9429021F0333033F0337033B034703E5
S11300F0F302030307030B03F702FB02FF020F03E0
S1130100130317031B032B032303270343032F03A7
S11301104B03D503E103ED03F103F503F903A10355
S1130120B103B503B903A503A903AD03BD03C1031B
S1130130C503C903D103CD03E503E903DD03D903F3
S1130140FA06010708070F0716071D0724072B07E0
S113015032073907400747074E0755075C0763070F
S11301606A07710778077F0786078D0794079B073F
S1130170B107B507BA07C007C607CB07D107D7072A
S1130180E107E707EE07F507FB07020809080F0870
S113019014081E0824082A082F0835083B084008BC
S11301A0520858085E0864086A08700876087C08D3
S11301B0820888089608A408B208C008CE08DC089B
S11301C0EA08F008F608FC08020908090E091409EF
S11301D02D09320937093C09410946094B095009DF
S11301E054095909600967096E0975097C0983096D
S11301F08A098E09930998099D09A209A709AC09DE
S113020000C0C101C30302C2C60607C705C5C404B2
S1130210CC0C0DCD0FCFCE0E0ACACB0BC90908C822
S1130220D81819D91BDBDA1A1EDEDF1FDD1D1CDC12
S113023014D4D515D71716D6D21213D311D1D01082
S1130240F03031F133F3F23236F6F737F53534F472
S11302503CFCFD3DFF3F3EFEFA3A3BFB39F9F838E2
S113026028E8E929EB2B2AEAEE2E2FEF2DEDEC2CD2
S1130270E42425E527E7E62622E2E323E12120E042
S1130280A06061A163A3A26266A6A767A56564A432
S11302906CACAD6DAF6F6EAEAA6A6BAB69A9A868A2
S11302A078B8B979BB7B7ABABE7E7FBF7DBDBC7C92
S11302B0B47475B577B7B67672B2B373B17170B002
S11302C050909151935352929656579755959454F2
S11302D09C5C5D9D5F9F9E5E5A9A9B5B9959589862
S11302E0884849894B8B8A4A4E8E8F4F8D4D4C8C52
S11302F044848545874746868242438341818040C2
S113030000C1814001C0804101C0804100C18140E1
S113031001C0804100C1814000C1814001C08041D1
S113032001C0804100C1814000C1814001C08041C1
S113033000C1814001C0804101C0804100C18140B1
S113034001C0804100C1814000C1814001C08041A1
S113035000C1814001C0804101C0804100C1814091
S113036000C1814001C0804101C0804100C1814081
S113037001C0804100C1814000C1814001C0804171
S113038001C0804100C1814000C1814001C0804161
S113039000C1814001C0804101C0804100C1814051
S11303A000C1814001C0804101C0804100C1814041
S11303B001C0804100C1814000C1814001C0804131
S11303C000C1814001C0804101C0804100C1814021
S11303D001C0804100C1814000C1814001C0804111
S11303E001C0804100C1814000C1814001C0804101
S11303F000C1814001C0804101C0804100C18140F1
S1130400E30611241FBECFEFD1E2DEBFCDBF13E060
S1130410A0E0B2E0E6E1FBE202C005900D92AC364A
S1130420B107D9F726E0ACE6B3E001C01D92AF38BE
S1130430B207E1F712E0C1E0D2E004C02197FE0167
S11304400E941015C030D107C9F70E940E0B0C94FE
S113045089150C940000809102020895823089F07D
S113046028F4882341F0813049F00895833061F005
S1130470843069F008956093820308956093810342
S1130480089560938003089560937F0308956093B3
S113049083030895823089F028F4882341F0813061
S11304A049F014C0833061F0843069F00FC080914A
S11304B082030895809181030895809180030895B3
S11304C080917F03089580918303089580E00895C7
S11304D00F931F93CF93DF93883108F5C62FD82F3E
S11304E0082F10E0F801E55BFD4F608342E00E94B5
S11304F07714F801EC5AFC4F20816C2F70E0822FA6
S113050090E002966817790751F462E0620FF801EF
S1130510ED5CFD4F608341E08D2F0E947714DF91E5
S1130520CF911F910F9108950F931F93CF93DF9352
S1130530883108F5C62FD82F082F10E0F801ED5C9C
S1130540FD4F608341E00E947714F801EC5AFC4FA0
S113055020816C2F70E0822F90E002966817790753
S113056051F462E0620FF801E55BFD4F608342E005
S11305708D2F0E947714DF91CF911F910F910895D1
S1130580883140F4E82FF0E0ED5FFD4F608340E0F8
S11305900E9477140895883130F4E82FF0E0E55B89
S11305A0FD4F808108958FEF0895883130F4E82F4E
S11305B0F0E0ED5CFD4F808108958FEF0895883160
S11305C030F4E82FF0E0ED5FFD4F808108958FEF68
S11305D0089590E08731910508F060C0FC01EE5861
S11305E0FF4F0C94101588E00E94470808958CE092
S11305F00E94470808958DE00E94470808958EE000
S11306000E944708089589E00E94470808958AE0F7
S11306100E94470808958BE00E94470808958FE0E0
S11306200E944708089580E10E944708089581E1E7
S11306300E944708089582E10E944708089581E0D6
S11306400E944708089584E10E944708089585E1BF
S11306500E944708089583E10E944708089587E1AE
S11306600E944708089582E00E944708089584E0A4
S11306700E944708089585E00E944708089583E092
S11306800E944708089586E10E944708089586E07D
S11306900E944708089588E10E9447080895AF9290
S11306A0BF92CF92DF92EF92FF920F931F93CF935B
S11306B0DF930F2EFBE4EF2EF2E0FF2EF02D04E586
S11306C013E00F2EFDE8AF2EF3E0BF2EF02D0F2E1A
S11306D0F5EACF2EF3E0DF2EF02DE5018C2F8A19F9
S11306E0F70161917F01F80121918F01261718F01C
S11306F00E94E9020AC070E030E02E5F3F4F6217AB
S1130700730719F468810E94E9022196CC15DD056E
S113071029F782E080930202DF91CF911F910F911C
S1130720FF90EF90DF90CF90BF90AF90089590E04E
S11307308731910508F061C0FC01E757FF4F0C9425
S1130740101588E00E94A60708958CE00E94A60771
S113075008958DE00E94A60708958EE00E94A607E2
S1130760089589E00E94A60708958AE00E94A607DA
S113077008958BE00E94A60708958FE00E94A607C3
S1130780089580E10E94A607089581E10E94A607CA
S1130790089582E10E94A607089584E10E94A607B5
S11307A0089583E10E94A607089581E00E94A607A8
S11307B0089588E10E94A607089587E10E94A6078C
S11307C0089582E00E94A607089585E10E94A60785
S11307D0089586E10E94A607089583E00E94A60773
S11307E0089584E00E94A607089585E00E94A60764
S11307F0089586E00E94A607089580E008959F92D8
S1130800AF92BF92CF92DF92EF92FF920F931F931A
S1130810CF93DF930F2EF3E3EF2EF2E0FF2EF02DB4
S113082004E513E00F2EFDE8AF2EF3E0BF2EF02D0C
S11308300F2EF5EACF2EF3E0DF2EF02DE5019C2EEE
S11308409A18F70161917F01F80121918F01261710
S113085020F0892D0E94E9020FC070E030E02E5F85
S11308603F4F6217730741F4892D0E9497038883D1
S113087060E0892D0E94E9022196CC15DD05F9F688
S113088081E080930202DF91CF911F910F91FF903D
S1130890EF90DF90CF90BF90AF909F9008959F927C
S11308A0AF92BF92CF92DF92EF92FF920F931F937A
S11308B0CF93DF930F2EF3E0EF2EF2E0FF2EF02D17
S11308C00F2EF4E5AF2EF3E0BF2EF02D0DE813E06C
S11308D00F2EFCE6CF2EF3E0DF2EF02DE5019C2E4B
S11308E09A18F70161917F012991261730F0892D1B
S11308F00E94E902F801108210C070E030E02E5F1F
S11309003F4F6217730749F4892D0E949703F8013A
S1130910808360E0892D0E94E9020F5F1F4FCC1590
S1130920DD05E9F610920202DF91CF911F910F913C
S1130930FF90EF90DF90CF90BF90AF909F9008957D
S1130940CF93C82F823019F40E944F030EC0813018
S113095019F40E94FF0309C0811103C00E944F04CF
S113096004C0833011F40E94FF038C2F0E949C1456
S1130970CF910895CF93C0E060E08C2F0E94E902EC
S1130980CF5FC831C9F7CF910895809300020895CD
S11309908091000208950F931F9380917203811137
S11309A00DC00E94AF1460936E0370936F03809325
S11309B070039093710381E08093720380917E03AE
S11309C0882309F4EFC00E94AF1400917A031091B8
S11309D07B0320917C0330917D03DC01CB01801BE0
S11309E0910BA20BB30B893E9340A105B10530F0E6
S11309F088E00E94220910927E03D4C0809188036B
S1130A008823D1F00E94AF140091840310918503D0
S1130A102091860330918703DC01CB01801B910B6D
S1130A20A20BB30B81319742A105B10528F081E0F7
S1130A30809301021092880380917E03811150C03B
S1130A408CE00E948A0A811104C080910102811104
S1130A5098C080916D038823E1F08091010288237E
S1130A60C1F00E94AF1400916E0310916F032091A6
S1130A70700330917103DC01CB01801B910BA20B3D
S1130A80B30B81369A4EA105B10518F088E00E9497
S1130A901E0981E00E94860A882311F188E00E94E1
S1130AA0A607892B79F080910102882329F01092FE
S1130AB0010281E080936C0388E00E941E09109279
S1130AC06D030EC088E00E941A0910926D03809194
S1130AD06C03882329F081E08093010210926C0357
S1130AE082E00E94860A882319F089E00E94220984
S1130AF083E00E94860A882319F08AE00E94220972
S1130B0084E00E94860A882319F08BE00E9422095F
S1130B1085E00E94860A882319F08CE00E9422094D
S1130B2086E00E94860A882319F08DE00E9422093B
S1130B3087E00E94860A882319F08EE00E94220929
S1130B4088E00E94860A882319F08FE00E94220917
S1130B5089E00E94860A882319F080E10E94220914
S1130B608AE00E94860A882319F081E10E94220902
S1130B708BE00E94860A8823D9F082E10E94220930
S1130B8017C088E00E941A090E94AF1460936E0394
S1130B9070936F03809370039093710381E080934B
S1130BA06D035BCF80918803882309F449CF2ACF52
S1130BB01F910F910895CF938DE00E94860A882398
S1130BC049F080910002882329F08091020282304A
S1130BD009F044C08EE00E94860A8823B1F0809117
S1130BE00002882391F081E00E94A0040E94AF14C7
S1130BF060938403709385038093860390938703A3
S1130C0081E080938803109201028FE00E94860A9B
S1130C108823B1F080910002882391F080E00E9443
S1130C20A0040E94AF14609384037093850380939F
S1130C3086039093870381E08093880310920102D6
S1130C4080E10E94860A882359F180910202823051
S1130C5039F580910002811105C022C082E00E9412
S1130C60A004B8CF0E94AF146093840370938503EB
S1130C708093860390938703C1E0C0938803109206
S1130C80010288E00E942209C0937E030E94AF14EF
S1130C9060937A0370937B0380937C0390937D032A
S1130CA0CF910895CF92DF92EF92FF920F931F930B
S1130CB0CF93DF93809102028330B1F50E94AF1489
S1130CC00091890310918A0320918B0330918C0346
S1130CD0DC01CB01801B910BA20BB30B0B97A1057D
S1130CE0B10510F10BE112E00F2EF4E5CF2EF3E085
S1130CF0DF2EF02D0F2EFCE6EF2EF3E0FF2EF02D6D
S1130D00E6018C2F8C19F80141918F01299150E053
S1130D1030E02D5F3F4F4217530719F460E00E9403
S1130D20E902CE15DF0569F7DF91CF911F910F918D
S1130D30FF90EF90DF90CF9008958091810381110F
S1130D4007C00E94DB050E94CB040E94520608954E
S1130D500E94BA04089580930102089580910102CB
S1130D60089542E068E18BE492E00E94431440E07D
S1130D7068E183E092E00E94431441E068E183E388
S1130D8092E00E94431443E068E18BE192E00E9408
S1130D904314089542E068E18BE492E00E945D14FC
S1130DA040E068E183E092E00E945D1441E068E184
S1130DB083E392E00E945D1443E068E18BE192E0FA
S1130DC00E945D1408950E94AF1460937A03709397
S1130DD07B0380937C0390937D030895482F50E018
S1130DE0FA013197E831F10508F0ACC0E056FF4F45
S1130DF00C94101529B130E02095309520783327D4
S1130E00A3C029B130E020953095207433279CC0CD
S1130E1029B130E0209530952072332795C029B14F
S1130E2030E020953095207133278EC029B130E011
S1130E30209530952870332787C029B130E020955C
S1130E4030952470332780C029B130E02095309547
S1130E502270332779C099B181E08927282F217026
S1130E6030E072C02CB130E02095309520783327E3
S1130E706BC02CB130E0209530952074332764C0CA
S1130E802CB130E020953095207233275DC02CB111
S1130E9030E0209530952071332756C02CB130E0D6
S1130EA020953095287033274FC02CB130E0209521
S1130EB030952470332748C02CB130E0209530950C
S1130EC02270332741C09CB181E08927282F2170EB
S1130ED030E03AC09FB181E08927282F217030E0AB
S1130EE033C02FB130E020953095227033272CC0C9
S1130EF02FB130E0209530952470332725C02FB1D1
S1130F0030E020953095287033271EC02FB130E093
S1130F10209530952071332717C02FB130E02095EC
S1130F2030952072332710C02FB130E020953095D2
S1130F302074332709C02FB130E0209530952078F4
S1130F40332702C020E030E0C901089590E0FC019D
S1130F503197E831F10508F097C0E854FF4F0C943D
S1130F60101580B1817090E0089580B186958170EC
S1130F7090E0089580B182FB882780F990E008957D
S1130F8080B183FB882780F990E0089580B1829531
S1130F90817090E0089580B185FB882780F990E006
S1130FA0089580B186FB882780F990E0089580B188
S1130FB0082E000C990B892F881F8827881F90E022
S1130FC0089582B382FB882780F990E00895809188
S1130FD0030186FB882780F990E00895809103013E
S1130FE085FB882780F990E008958091030182951C
S1130FF0817090E008958091030183FB882780F934
S113100090E008958091030182FB882780F990E0A5
S11310100895809103018695817090E008958091F0
S11310200301817090E0089586B1082E000C990B9D
S1131030892F881F8827881F90E0089586B186FB32
S1131040882780F990E0089586B185FB882780F988
S113105090E0089586B18295817090E0089586B1FC
S113106083FB882780F990E0089586B182FB882766
S113107080F990E0089586B18695817090E0089596
S113108086B1817090E0089580E090E0089590E04A
S1131090FC013197E831F10508F0CBC0E053FF4F74
S11310A00C941015662311F0109A08951098089561
S11310B0662311F0119A089511980895662311F08A
S11310C0129A089512980895662311F0139A0895B8
S11310D013980895662311F0149A089514980895A6
S11310E0662311F0159A089515980895662311F052
S11310F0169A089516980895662311F0179A08957C
S113110017980895662311F0A29A0895A298089555
S1131110662331F0E5E0F1E0808180648083089506
S1131120E5E0F1E080818F7B80830895662331F0D0
S1131130E5E0F1E08081806280830895E5E0F1E0FC
S113114080818F7D80830895662331F0E5E0F1E0AE
S11311508081806180830895E5E0F1E080818F7E65
S113116080830895662331F0E5E0F1E080818860B2
S113117080830895E5E0F1E08081877F808308958E
S1131180662331F0E5E0F1E0808184608083089596
S1131190E5E0F1E080818B7F80830895662331F060
S11311A0E5E0F1E08081826080830895E5E0F1E08C
S11311B080818D7F80830895662331F0E5E0F1E03E
S11311C08081816080830895E5E0F1E080818E7FF5
S11311D080830895662311F0479A089547980895E7
S11311E0662311F0469A089546980895662311F0EF
S11311F0459A089545980895662311F0449A0895F0
S113120044980895662311F0439A089543980895E5
S1131210662311F0429A089542980895662311F0C6
S1131220419A089541980895662311F0409A0895CB
S11312304098089561E00E944708089560E00E9484
S11312404708089590E0FC013197E831F10508F072
S113125087C0E851FF4F0C94101592B181E08927A3
S113126082B9089592B182E0892782B9089592B132
S113127084E0892782B9089592B188E0892782B9E8
S1131280089592B180E1892782B9089592B180E2EC
S1131290892782B9089592B180E4892782B9089593
S11312A082B1805882B9089594B384E0892784BBBD
S11312B00895E5E0F1E0908180E489278083089532
S11312C0E5E0F1E0908180E2892780830895E5E0FC
S11312D0F1E0908180E1892780830895E5E0F1E0E1
S11312E0908188E0892780830895E5E0F1E090818A
S11312F084E0892780830895E5E0F1E0908182E02D
S1131300892780830895E5E0F1E0908181E08927D1
S11313108083089588B1805888B9089598B180E48D
S1131320892788B9089598B180E2892788B90895F2
S113133098B180E1892788B9089598B188E0892710
S113134088B9089598B184E0892788B9089598B137
S113135082E0892788B9089598B181E0892788B9FE
S11313600895CF92DF92EF92FF920F931F93CF9342
S1131370DF93C82FD62F0E94EE06892B09F44AC0AA
S11313800C2F10E0F801EB5DFA4F8081882379F18E
S11313900E94AF147801EE0CFF1CEE0CFF1CF70149
S11313A0EB53FB4F6083718382839383F801E35B88
S11313B0FB4FD701AB59BB4F0D911D912D913C9122
S11313C0AB01BC01401B510B620B730BD701AD5930
S11313D0BD4F21E08D919D910D90BC91A02D84175E
S11313E09507A607B70708F020E0208324C0F8017A
S11313F0EB5DFA4F81E080830E94AF14000F111F50
S1131400000F111FF801EB59FB4F60837183828336
S1131410938311C08C2F90E0FC01EB5DFA4F208187
S1131420222329F021E0FC01EB5CFB4F2083FC012B
S1131430EB5DFA4F10828C2F90E0FC01EB5CFB4FCC
S11314402081222309F448C0FC01EE0FFF1FEE0F98
S1131450FF1F9F012B533B4F8F010B591B4FD9018A
S11314604D915D916D917C91D8010D911D912D91BE
S11314703C91401B510B620B730BED59FD4F21E066
S1131480C080D180E280F3804C155D056E057F0538
S113149008F420E0FC01E35BFB4F2083211113C01F
S11314A0FC01EE0FFF1FEE0FFF1FED53FD4F21E078
S11314B0C080D180E280F3804C155D056E057F0508
S11314C018F420E001C020E0FC01E35EFB4F208320
S11314D0FC01EB5CFB4F1082D11106C0FC01E35E02
S11314E0FB4F8081108209C0D13031F4FC01E35BF1
S11314F0FB4F8081108201C080E0DF91CF911F916A
S11315000F91FF90EF90DF90CF90089560E00E94DC
S1131510B10908950F931F93CF93DF93C82F0E94AF
S1131520EE06892B91F1D0E0FE01EB5FFB4F1081B9
S11315301123C9F00E94AF14CC0FDD1FCC0FDD1FA7
S1131540CB55DC4F088119812A813B81DC01CB0119
S1131550801B910BA20BB30B11E0C397A105B1053E
S1131560C8F410E017C0FE01EB5FFB4F81E08083FD
S11315700E94AF14CC0FDD1FCC0FDD1FCB55DC4F09
S1131580688379838A839B8305C0D0E0CB5FDB4F7C
S1131590188210E0812FDF91CF911F910F91089550
S11315A0E1E6F0E090E8908310828FEF81B912B801
S11315B014B885B987B918B81AB88BB91DB88EB9DB
S11315C010BA81BB24E023BB2BE324BB109201019E
S11315D0809302012FE72093040190930501109258
S11315E00701809308018FE180930A0180EE8093C4
S11315F00B01089583E00E944A02882351F081E0A0
S11316000E944A02811105C061E081E00E94E90262
S1131610089560E081E00E94E90208950E94D00AE2
S11316200E94A7140E941C14E12C00E815E220E09B
S113163030E040E061E080E00E94750E0E94DB0E25
S11316400E9492140E94A0040E94AF146B017C01BA
S113165061E083E00E942E02CBE0D1E011E00E9421
S11316609D060E94FA0A0E94AF14DC01CB018C197A
S11316709D09AE09BF09853F9140A105B10538F028
S11316808881812788830E94AF146B017C010E94AA
S1131690EA0EE5CF1F93CF93DF93EB0128813981C5
S11316A02530310509F050C0FC01A181228143811C
S11316B050E0542F44273481432BFA013197EF3CF7
S11316C0F74008F043C01982188231E0EC013883F6
S11316D0EB01E881F9813196F983E883FA01E77037
S11316E0FF27EF2B51F0FA01F695E795F695E7956C
S11316F0F695E79511E01E0F08C0FA01F695E795F7
S1131700F695E795F695E7951E2FEB01FC011183FD
S1131710688179816F5F7F4F79836883622F70E07E
S11317207A2B6F5F7F4F20E002960E944C13882330
S113173019F00E94670E0BC088819981810F911D59
S11317409983888380E003C083E001C083E0DF9154
S1131750CF911F910895CF93DF9300D0CDB7DEB71B
S1131760FB01208131812530310511F5FC013181E6
S11317706281248121111EC083819FEF980F9E3FB7
S1131780D8F01A828F3F19F481E0898301C019824D
S113179070E0732B6F5F7F4F21E041E050E0CE019A
S11317A001960E944C13882349F00E94670E07C0DB
S11317B083E005C083E003C083E001C080E00F90B4
S11317C00F90DF91CF9108951F93CF93DF93FB0187
S11317D02081318126303105E8F1FC011181B2818B
S11317E0438150E0542F44272481422BA5819A0140
S11317F027703327232B49F09A0136952795369580
S11318002795369527952F5F07C09A01369527951A
S11318103695279536952795FA013197E03BF740A1
S1131820D8F42A131BC0EB016B2F70E09B01312B02
S1131830B9016F5F7F4F21E006960E944C13882305
S113184019F00E94670E0BC085E090E099838883AD
S113185080E005C083E003C083E001C083E0DF9142
S1131860CF911F9108951F93CF93DF93EB012881AC
S113187039812530310509F04FC0FC01A181228155
S1131880438150E0542F44273481432BFA0131978C
S1131890EF3CF74008F042C01982188232E0EC01B4
S11318A03883EB01E881F9813196F983E883FA0101
S11318B0E770FF27EF2B51F0FA01F695E795F695BF
S11318C0E795F695E79511E01E0F08C0FA01F69525
S11318D0E795F695E795F695E7951E2FEB01FC0144
S11318E01183688179816F5F7F4F79836883622F69
S11318F070E07A2B6F5F7F4F02960E94F11388236A
S113190019F00E94670E0BC088819981810F911D87
S11319109983888380E003C083E001C083E0DF9182
S1131920CF911F910895FB0120813181253031052C
S1131930A1F4FC01618170E0762F66272281622B7D
S11319406F5F7F4F21E041E050E003960E94C41294
S1131950882329F00E94670E089583E0089580E0AB
S11319600895CF93DF93EB01288139812630310527
S113197050F1FC01A181F281EC014B8150E0542F24
S113198044272C81422BED819A01215031092837BB
S11319903105D8F4242F220F2E1319C0EB016F2F19
S11319A070E07A2B6F5F7F4F21E006960E94C4128D
S11319B0882319F00E94670E0BC085E090E099839C
S11319C0888380E005C083E003C083E001C083E036
S11319D0DF91CF9108950F931F93CF93DF93DB0192
S11319E02D913C912530310509F03FC0DC01119661
S11319F0EC91119712963C91129714962C9114978E
S1131A00022F10E0A801415051094D37510578F5D6
S1131A10EB011982188243E04C93488159814F5F4E
S1131A205F4F59834883220F11962C934881598123
S1131A304F5F5F4F59834883632F70E07E2B6F5F46
S1131A407F4F20E0A80102960E94C412882319F057
S1131A500E94670E0DC0000F111F88819981080F25
S1131A60191F1983088380E003C083E001C083E069
S1131A70DF91CF911F910F910895CF92DF92EF9252
S1131A80FF920F931F93CF93DF93FC01DB018D91A2
S1131A909C910A9708F45EC0E180F280C381D0E093
S1131AA0DC2FCC278481C82BB581A6812781408572
S1131AB03185CE0101978D37910508F04DC050E076
S1131AC0522BCA0101978937910508F047C0832F2B
S1131AD090E09A01220F331F2817390709F040C0FC
S1131AE08B016F016A2F70E07B2B6F5F7F4F21E0CA
S1131AF0CF010A960E94C412811134C0F8011182E8
S1131B00108287E1D6018C93808191810196918323
S1131B1080838C2F880F11968C93808191810196FC
S1131B20918380836F2D70E07E296F5F7F4F20E06B
S1131B30AE01C60102960E94C412811113C0CC0FDB
S1131B40DD1FF801808191818C0F9D1F918380831B
S1131B5080E00AC080E008C083E006C083E004C0DF
S1131B6083E002C00E94670EDF91CF911F910F9115
S1131B70FF90EF90DF90CF9008950F931F93CF9332
S1131B80DF93DB012D913C912530310509F044C0F0
S1131B90DC011196EC91119712962C9112971396E1
S1131BA00C91139710E0102F002714963C91149772
S1131BB0032BA801415051094C37510578F5EB012D
S1131BC01982188234E03C93488159814F5F5F4FFA
S1131BD059834883302F330F11963C9348815981A0
S1131BE04F5F5F4F59834883622F70E07E2B6F5F96
S1131BF07F4FA80102960E94C212882319F00E9406
S1131C00670E0DC0000F111F88819981080F191FDD
S1131C101983088380E003C083E001C083E0DF917F
S1131C20CF911F910F9108950F931F93CF93DF933B
S1131C308B01C0913D05D0913E05AE016FE375E087
S1131C4001960E9425152196F801D183C08380E076
S1131C50DF91CF911F910F9108950F931F93CF930D
S1131C60DF9330E08B011695079516950795169529
S1131C70079567707727E1E0F0E002C0EE0FFF1FE1
S1131C804A95E2F73197EC01C00FD11F48810F5FED
S1131C901F4FDC01A00FB11F8C9150E0582B062E72
S1131CA002C0EE0FFF1F0A94E2F7E095F0954E2371
S1131CB05F2302C0220F331F6A95E2F7422B532B96
S1131CC048835C93DF91CF911F910F9108958130E8
S1131CD021F048F0873019F004C082E0089586E0CE
S1131CE0089584E0089580E00895CF92DF92EF9202
S1131CF0FF920F931F93CF939FEF960F973F08F098
S1131D004EC05E2D68017901742F962F182F6093B1
S1131D107105811137C02EE031E130936D052093B8
S1131D206C0529E131E130936B0520936A052AE5BE
S1131D3031E130936F0520936E0522E231E1309357
S1131D4069052093680510926705109266052AEAD2
S1131D5031E130938A052093890520E032E1309304
S1131D608605209385052EE332E130938805209380
S1131D708705052FA7019601672F892F0E94D4108C
S1131D80C82F01C0C2E0C1110DC00E949E0F88235C
S1131D9041F01093700581E08093530303C0C2E0C7
S1131DA001C0C3E08C2FCF911F910F91FF90EF9052
S1131DB0DF90CF90089580915303813049F4E091EE
S1131DC06C05F0916D0509951092530380E0089518
S1131DD086E00895CF93DF931F92CDB7DEB780914D
S1131DE05303811199C0CE0101960E94A90F81303D
S1131DF009F094C08981813019F08230D9F090C003
S1131E00E0916805F091690541E655E063E675E007
S1131E1085E695E00995811185C0809165059091CD
S1131E207105891711F081117FC082E00E94A20F11
S1131E3080E080C0A0916305B09164054C9140930B
S1131E40600581E080935F0590912303992309F451
S1131E506DC0491759F0E6E2F3E021E030E09081EB
S1131E60992309F463C049131AC002C020E030E08A
S1131E70F901EE0FFF1F2E0F3F1FF901ED5DFC4F1F
S1131E800180F281E02D61E675E0CD010995809332
S1131E905F0590916505911109C080E04BC02F5FEB
S1131EA03F4F339620313105D1F640C0882319F1D4
S1131EB001C081E0E0916305F091640521E030E028
S1131EC0309362052093610590916005906890833A
S1131ED0409163055091640520916105309162053C
S1131EE0B9016F5F7F4F7093620560936105FA01DA
S1131EF0E20FF31F80834091610550916205609168
S1131F00630570916405E0916E05F0916F05809111
S1131F107105099580E00EC086E00CC080E00AC01F
S1131F2080E008C080E006C080E004C080916505C0
S1131F308111BFCF0F90DF91CF9108951092720558
S1131F4081E0089591E0909372058093730581E098
S1131F500895FC0190917205992339F080917305DD
S1131F6080831092720581E0089580E00895E1ED88
S1131F70F0E0908198609083882321F080818069CB
S1131F80808305C0E1EDF0E080818F768083662355
S1131F9031F0E1EDF0E08081886280830895E1ED25
S1131FA0F0E08081877D80830895DB01CA01880F7A
S1131FB0991FAA1FBB1F880F991FAA1FBB1F9C0133
S1131FC0AD01220F331F441F551F220F331F441F1F
S1131FD0551F60E072E18AE790E00E94EE14215000
S1131FE02093D40060E080E00E94B70F81E0089560
S1131FF08093D60081E008952091D600FC012083CF
S113200081E008951F920F920FB60F9211242F931F
S11320103F934F935F936F937F938F939F93AF936C
S1132020BF93EF93FF93E0918505F09186050995A1
S1132030FF91EF91BF91AF919F918F917F916F919C
S11320405F914F913F912F910F900FBE0F901F9072
S113205018951F920F920FB60F9211242F933F934E
S11320604F935F936F937F938F939F93AF93BF939C
S1132070EF93FF93E0918905F0918A050995FF910B
S1132080EF91BF91AF919F918F917F916F915F91EC
S11320904F913F912F910F900FBE0F901F90189565
S11320A09C01A4E8BEE10E94161520E23EE440E053
S11320B050E00E94EE1430937505209374052F3F71
S11320C0310509F068F414BC15BC85B58A7F85BD5B
S11320D0EEE6F0E080818D7F8083A99A81E0089507
S11320E080E0089516BC8091740590917505892B44
S11320F041F0EEE6F0E08081826080838091740597
S113210087BD85B5856085BD089585B58A7F85BD04
S1132110EEE6F0E080818D7F8083A99A08951F9276
S11321200F920FB60F9211242F933F934F935F9307
S11321306F937F938F939F93AF93BF93EF93FF938B
S1132140E0918705F09188050995FF91EF91BF9182
S1132150AF919F918F917F916F915F914F913F913B
S11321602F910F900FBE0F901F9018956115710558
S1132170B1F0DC01680F791F8FEF4FEF9D91892734
S1132180282F30E0F901E050FD4F84918427F901B4
S1132190E050FE4F4491A617B70781F702C08FEFB6
S11321A04FEF90E0942B0895CF92DF92EF92FF923D
S11321B00F93862F69017A01F89428E0B701A601EC
S11321C00E94D50F813001F581E0C8168BE4D80652
S11321D0E104F10478F4A7019601220F331F441F90
S11321E0551F60EA7FE787E190E00E94EE14DA0170
S11321F0C90104C083E290E0A0E0B0E00E94501066
S1132200813021F083E003C083E001C080E0789452
S11322100F91FF90EF90DF90CF900895F894109273
S11322207C0560E081E00E94B70F0E9472107894F0
S11322300895F89460E080E00E94B70F0E94851032
S113224078940895EF92FF920F931F93CF93DF93A7
S1132250F894209176053091770524303105F8F013
S11322607A018B01EC0160917605709177058FE816
S113227095E00E94B610892BA1F480918F05888384
S113228080917605909177050397F7019183808378
S113229080E995E0F8019183808380E003C085E0C4
S11322A001C085E07894DF91CF911F910F91FF9049
S11322B0EF900895F89490917C05913009F047C00F
S11322C0282FCB01019790937B0580937A0561E0D9
S11322D070E07093790560937805FC012083209168
S11322E0780530917905420F531F50937905409337
S11322F0780560917805709179050E94B610492F90
S11323002091780530917905B9016F5F7F4F709303
S1132310790560937805F901E157FA4F808380913C
S11323207805909179059C012F5F3F4F3093790593
S113233020937805FC01E157FA4F408381E08093B4
S11323407D0561E080E00E94B70F80E001C085E078
S113235078940895CF93DF931F92CDB7DEB7CE0163
S113236001960E94FC0F80917C05813061F028F079
S1132370823019F1833021F03EC00E9472103BC0BC
S11323800E94721038C010927705109276058091E1
S11323907605909177059C012F5F3F4F3093770529
S11323A0209376052981FC01E157FA4F208382E0CE
S11323B080937C050E9472101EC0809176059091D6
S11323C077058F3F910509F088F480917605909107
S11323D077059C012F5F3F4F309377052093760557
S11323E02981FC01E157FA4F208303C083E08093E5
S11323F07C050E94721080E00F90DF91CF910895C8
S1132400CF9380917D05882319F0813039F032C053
S113241060E081E00E94B70FC0E02DC08091780594
S113242090917905892BD9F0E0917A05F0917B059B
S113243080810E94F80F80917A0590917B05019626
S113244090937B0580937A05809178059091790526
S113245001979093790580937805C0E00CC083E0E0
S11324600E94A20FC82F60E081E00E94B70F109273
S11324707D0501C0C0E08C2FCF910895CF9380914A
S11324807C05882319F0823031F00AC080E00E9474
S1132490A20FC82F06C081E00E94A20FC82F01C05E
S11324A0C0E00E94851081E080937C058C2FCF9141
S11324B008958436910539F08F3F910541F08130BC
S11324C0910541F428C00E942B0290E008950E94D7
S11324D03E1408959C01255631092233310528F410
S11324E085560E94CB0290E008959C01275931093A
S11324F02233310528F487590E94DF0290E00895C1
S11325009C01295C31092233310540F4895C0E9425
S1132510D50290E0089580E090E0089580E090E096
S113252008958436910539F08F3F910541F081304B
S1132530910551F40895862F0E94A0040895862FD2
S113254090E00E94391408959C01255631092233E4
S1132550310520F485560E94680208959C0127598C
S113256031092233310520F487590E94C0020895AD
S11325709C01295C31092233310518F4895C0E94DD
S11325809402089580E00895EF92FF920F931F93B1
S1132590CF93DF93EB012197222321F041155105BD
S11325A0E1F42FC04115510561F18C010F5F1F4FFC
S11325B07A0181E0E81AF108E60EF71EF801319776
S11325C01082CE010E945912F801808321960E5F79
S11325D01F4FCE15DF0591F714C08C010F5F1F4FFD
S11325E07A01F1E0EF1AF108E60EF71EF8016081B6
S11325F0CE010E9491120E5F1F4F2196CE15DF056A
S1132600A9F780E0DF91CF911F910F91FF90EF9098
S11326100895883140F481500E94970391E081111C
S113262016C090E014C0863641F0873659F08536DE
S113263069F40E94C804982F0AC083E00E944A02E9
S1132640982F05C00E94AE06982F01C090E0892FF4
S11326500895CF93DF93C82FD62F883120F48FEFBE
S11326608C0F0E94E902C63651F0C73661F0C536B8
S113267081F481E0D11101C080E00E94C50461E0D1
S113268083E00E942E0281E0D11101C080E00E940B
S1132690AB06DF91CF910895CF92DF92EF92FF9234
S11326A00F931F93CF93DF936C017A018B01015039
S11326B01109EBE0F1E0908180E189278083211109
S11326C03CC041E050E0970127703327232B11F4DD
S11326D040E050E0C7019695879596958795969525
S11326E08795840F951F009739F0F6018C0D9D1D79
S11326F01192E817F907E1F7E114F104E9F1C0E0F8
S1132700D0E08C2F800F0E9409139C2F96959695EC
S11327109695F601E90FF11D9081282F30E08C2F5A
S1132720877002C0220F331F8A95E2F7292B20837A
S11327302196CE15DF0529F71FC02130E9F4452B7A
S1132740D9F0C0E0D0E08C2F869586958695F60169
S1132750E80FF11D608170E08C2F877002C07595C1
S113276067958A95E2F761708C2F800F0E94291378
S11327702196CE15DF0539F780E0DF91CF911F91C7
S11327800F91FF90EF90DF90CF9008959BEF980FFB
S1132790983040F48C5E0E94A60721E0892BF9F45E
S11327A020E01DC0813059F028F0823069F0833078
S11327B081F014C080E00E944A02282F10C081E0FA
S11327C00E944A02282F0BC082E00E944A02282F4E
S11327D006C083E00E944A02282F01C020E0822F15
S11327E00895CF92DF92EF92FF920F931F93CF93AE
S11327F0DF937B0121E0E21AF1084115510591F0C4
S11328008A016C01C0E0D0E08C2F8E0D0E94C613AB
S1132810282F41E0BE01C6010E942D0E2196C0174B
S1132820D10791F780E0DF91CF911F910F91FF9035
S1132830EF90DF90CF900895CF93DF93C0917E0502
S1132840D0917F05CE010E9446156E3F7A4C8E4B87
S11328509A4B19F40E94B10609C04EEF5AEC6EEB84
S11328607AEBCE010E946E150E94CA06DF91CF91C9
S1132870089590937F0580937E05089580917E0549
S113288090917F050895242F462F50E060917E0596
S113289070917F056C5F7F4F30E0F901EE0FFF1FF1
S11328A02E0F3F1F220F331F220F331F220F331F00
S11328B0620F731F0E942E150895242F462F50E097
S11328C060917E0570917F056C5F7F4F30E0F90168
S11328D0EE0FFF1F2E0F3F1F220F331F220F331F38
S11328E0220F331F620F731F0E944C15089520910D
S11328F07E0530917F052C5F3F4FF901E80FF11DF4
S1132900CF0150E09A01220F331F420F531F440F8F
S1132910551F440F551F440F551F840F951F0E94C8
S11329205C15089580917E0590917F058C599F4F89
S11329300E943E158370089520917E0530917F0595
S1132940682FC9018C599F4F0E945C15089582E03D
S11329508093B10081E087BB809370000895F89460
S11329606091810570918205809183059091840521
S1132970789408951F920F920FB60F9211244F93DB
S11329805F936F937F938F939F93409181055091B1
S1132990820560918305709184059091800580E2A1
S11329A0890F8D3730F083EA890F4F5F5F4F6F4F88
S11329B07F4F409381055093820560938305709304
S11329C08405809380059F918F917F916F915F9192
S11329D04F910F900FBE0F901F901895A1E21A2EE1
S11329E0AA1BBB1BFD010DC0AA1FBB1FEE1FFF1FAF
S11329F0A217B307E407F50720F0A21BB30BE40BFF
S1132A00F50B661F771F881F991F1A9469F7609545
S1132A107095809590959B01AC01BD01CF010895FF
S1132A20EE0FFF1F0590F491E02D0994A29FB001D1
S1132A30B39FC001A39F700D811D1124911DB29FEE
S1132A40700D811D1124911D0895FB01DC0102C04C
S1132A5001900D9241505040D8F70895DC01CB010C
S1132A60FC01F999FECF06C0F2BDE1BDF89A31969A
S1132A7000B40D9241505040B8F70895F999FECF33
S1132A8092BD81BDF89A992780B50895A6E1B0E07A
S1132A9044E050E00C943015DC01A40FB51F415004
S1132AA0504048F0CB01840F951F2E910E945D1574
S1132AB041505040D0F70895262FF999FECF92BD8A
S1132AC081BDF89A019700B4021639F01FBA20BDEF
S1132AD00FB6F894FA9AF99A0FBE0895242F0E941B
S1132AE07C15252F0E947C150C9476150E947B156D
S1132AF0272F0C947C15262FF999FECF1FBA92BD6F
S1132B0081BD20BD0FB6F894FA9AF99A0FBE0196CA
S1092B100895F894FFCFC4
S1132B1601010200010000000000000000000000A6
S1132B26000000000000000000000000010000009A
S1132B36000000000000000000000000010000008A
S1132B46000000000100000000000000000000007A
S1132B560000000001000000000000010101010165
S1132B660001000000000000000000000101010156
S1132B76010100E8030000E8030000E8030000E8A0
S1132B86030000E8030000E8030000E8030000E88F
S1132B96030000E8030000E8030000E8030000E87F
S1132BA6030000E8030000E8030000E8030000E86F
S1132BB6030000E8030000E8030000E8030000E85F
S1132BC6030000E8030000E8030000E8030000E84F
S1132BD603000002000000020000000200000002E0
S1132BE600000002000000020000000200000002D3
S1132BF600000002000000020000000200000002C3
S1132C0600000002000000020000000200000002B2
S1132C1600000002000000020000000200000002A2
S1132C260000000200000002000000020000000292
S1132C3600000011140E04BD0D03EB0C10B10C06BC
S1132C46930C173D0D014A0B05AB0B0FE40B023336
S1132C560C0000000000000000000000000000005E
S1132C66000000020101010101010101010101014C
S10F2C7601010101010101010101010142
S9030000FC
